{"abi":[{"type":"constructor","inputs":[{"name":"_token","type":"address","internalType":"contract IERC7984"}],"stateMutability":"nonpayable"},{"type":"function","name":"approveOperator","inputs":[{"name":"operator","type":"address","internalType":"address"},{"name":"until","type":"uint48","internalType":"uint48"}],"outputs":[],"stateMutability":"nonpayable"},{"type":"function","name":"checkOperator","inputs":[{"name":"holder","type":"address","internalType":"address"},{"name":"operator","type":"address","internalType":"address"}],"outputs":[{"name":"","type":"bool","internalType":"bool"}],"stateMutability":"view"},{"type":"function","name":"getReceivedTransfer","inputs":[{"name":"index","type":"uint256","internalType":"uint256"}],"outputs":[{"name":"from","type":"address","internalType":"address"},{"name":"amount","type":"bytes32","internalType":"bytes32"},{"name":"data","type":"bytes","internalType":"bytes"},{"name":"timestamp","type":"uint256","internalType":"uint256"}],"stateMutability":"view"},{"type":"function","name":"getReceivedTransferCount","inputs":[],"outputs":[{"name":"","type":"uint256","internalType":"uint256"}],"stateMutability":"view"},{"type":"function","name":"initiateTransfer","inputs":[{"name":"to","type":"address","internalType":"address"},{"name":"amount","type":"bytes32","internalType":"bytes32"},{"name":"data","type":"bytes","internalType":"bytes"}],"outputs":[{"name":"","type":"bytes32","internalType":"bytes32"}],"stateMutability":"nonpayable"},{"type":"function","name":"initiateTransferFrom","inputs":[{"name":"from","type":"address","internalType":"address"},{"name":"to","type":"address","internalType":"address"},{"name":"amount","type":"bytes32","internalType":"bytes32"},{"name":"data","type":"bytes","internalType":"bytes"}],"outputs":[{"name":"","type":"bytes32","internalType":"bytes32"}],"stateMutability":"nonpayable"},{"type":"function","name":"onConfidentialTokenReceived","inputs":[{"name":"from","type":"address","internalType":"address"},{"name":"amount","type":"bytes32","internalType":"bytes32"},{"name":"data","type":"bytes","internalType":"bytes"}],"outputs":[{"name":"","type":"bytes4","internalType":"bytes4"}],"stateMutability":"nonpayable"},{"type":"function","name":"queryBalance","inputs":[{"name":"account","type":"address","internalType":"address"}],"outputs":[{"name":"balance","type":"bytes32","internalType":"bytes32"}],"stateMutability":"nonpayable"},{"type":"function","name":"queryMetadata","inputs":[],"outputs":[{"name":"tokenName","type":"string","internalType":"string"},{"name":"tokenSymbol","type":"string","internalType":"string"},{"name":"tokenDecimals","type":"uint8","internalType":"uint8"}],"stateMutability":"view"},{"type":"function","name":"queryTotalSupply","inputs":[],"outputs":[{"name":"","type":"bytes32","internalType":"bytes32"}],"stateMutability":"view"},{"type":"function","name":"receivedTransfers","inputs":[{"name":"","type":"uint256","internalType":"uint256"}],"outputs":[{"name":"from","type":"address","internalType":"address"},{"name":"amount","type":"bytes32","internalType":"bytes32"},{"name":"data","type":"bytes","internalType":"bytes"},{"name":"timestamp","type":"uint256","internalType":"uint256"}],"stateMutability":"view"},{"type":"function","name":"token","inputs":[],"outputs":[{"name":"","type":"address","internalType":"contract IERC7984"}],"stateMutability":"view"},{"type":"event","name":"BalanceQueried","inputs":[{"name":"account","type":"address","indexed":true,"internalType":"address"},{"name":"balance","type":"bytes32","indexed":false,"internalType":"bytes32"}],"anonymous":false},{"type":"event","name":"TransferReceived","inputs":[{"name":"from","type":"address","indexed":true,"internalType":"address"},{"name":"amount","type":"bytes32","indexed":true,"internalType":"bytes32"}],"anonymous":false}],"bytecode":{"object":"0x608060405234801562000010575f80fd5b50604051620019b7380380620019b78339818101604052810190620000369190620000f4565b805f806101000a81548173ffffffffffffffffffffffffffffffffffffffff021916908373ffffffffffffffffffffffffffffffffffffffff1602179055505062000124565b5f80fd5b5f73ffffffffffffffffffffffffffffffffffffffff82169050919050565b5f620000ab8262000080565b9050919050565b5f620000be826200009f565b9050919050565b620000d081620000b2565b8114620000db575f80fd5b50565b5f81519050620000ee81620000c5565b92915050565b5f602082840312156200010c576200010b6200007c565b5b5f6200011b84828501620000de565b91505092915050565b61188580620001325f395ff3fe608060405234801561000f575f80fd5b50600436106100b2575f3560e01c806373c3823d1161006f57806373c3823d146101c95780639568c576146101e75780639f768f2014610217578063bae7ef6d14610235578063c8544ef114610251578063fc0c546a14610284576100b2565b80632cb5a743146100b657806337f42841146100e95780633a2bb8a7146101195780635119528314610149578063668d40ce146101795780637117b877146101a9575b5f80fd5b6100d060048036038101906100cb9190610c11565b6102a2565b6040516100e09493929190610d2c565b60405180910390f35b61010360048036038101906100fe9190610da0565b610382565b6040516101109190610dcb565b60405180910390f35b610133600480360381019061012e9190610e6f565b610470565b6040516101409190610f1a565b60405180910390f35b610163600480360381019061015e9190610e6f565b6105d9565b6040516101709190610dcb565b60405180910390f35b610193600480360381019061018e9190610f33565b610683565b6040516101a09190610f8b565b60405180910390f35b6101b1610726565b6040516101c093929190611011565b60405180910390f35b6101d16108e0565b6040516101de9190611054565b60405180910390f35b61020160048036038101906101fc919061106d565b6108ec565b60405161020e9190610dcb565b60405180910390f35b61021f610999565b60405161022c9190610dcb565b60405180910390f35b61024f600480360381019061024a919061112c565b610a2c565b005b61026b60048036038101906102669190610c11565b610ab7565b60405161027b9493929190610d2c565b60405180910390f35b61028c610baa565b60405161029991906111c5565b60405180910390f35b600181815481106102b1575f80fd5b905f5260205f2090600402015f91509050805f015f9054906101000a900473ffffffffffffffffffffffffffffffffffffffff16908060010154908060020180546102fb9061120b565b80601f01602080910402602001604051908101604052809291908181526020018280546103279061120b565b80156103725780601f1061034957610100808354040283529160200191610372565b820191905f5260205f20905b81548152906001019060200180831161035557829003601f168201915b5050505050908060030154905084565b5f805f9054906101000a900473ffffffffffffffffffffffffffffffffffffffff1673ffffffffffffffffffffffffffffffffffffffff1663344ff101836040518263ffffffff1660e01b81526004016103dc919061123b565b602060405180830381865afa1580156103f7573d5f803e3d5ffd5b505050506040513d601f19601f8201168201806040525081019061041b9190611268565b90508173ffffffffffffffffffffffffffffffffffffffff167fa41b43def7344741ba8847464b76abc03a095d9f0c5a4a628ea6df71c47f85ba826040516104639190610dcb565b60405180910390a2919050565b5f600160405180608001604052808773ffffffffffffffffffffffffffffffffffffffff16815260200186815260200185858080601f0160208091040260200160405190810160405280939291908181526020018383808284375f81840152601f19601f82011690508083019250505050505050815260200142815250908060018154018082558091505060019003905f5260205f2090600402015f909190919091505f820151815f015f6101000a81548173ffffffffffffffffffffffffffffffffffffffff021916908373ffffffffffffffffffffffffffffffffffffffff1602179055506020820151816001015560408201518160020190816105769190611454565b50606082015181600301555050838573ffffffffffffffffffffffffffffffffffffffff167f60551093b5921918e4033f07be0e1e50c63a6fcc21f0f3ba124662dec2f9854c60405160405180910390a3633a2bb8a760e01b9050949350505050565b5f805f9054906101000a900473ffffffffffffffffffffffffffffffffffffffff1673ffffffffffffffffffffffffffffffffffffffff16632fb74e62868686866040518563ffffffff1660e01b8152600401610639949392919061155d565b6020604051808303815f875af1158015610655573d5f803e3d5ffd5b505050506040513d601f19601f820116820180604052508101906106799190611268565b9050949350505050565b5f805f9054906101000a900473ffffffffffffffffffffffffffffffffffffffff1673ffffffffffffffffffffffffffffffffffffffff1663b6363cf284846040518363ffffffff1660e01b81526004016106df92919061159b565b602060405180830381865afa1580156106fa573d5f803e3d5ffd5b505050506040513d601f19601f8201168201806040525081019061071e91906115ec565b905092915050565b6060805f805f9054906101000a900473ffffffffffffffffffffffffffffffffffffffff1673ffffffffffffffffffffffffffffffffffffffff166306fdde036040518163ffffffff1660e01b81526004015f60405180830381865afa158015610792573d5f803e3d5ffd5b505050506040513d5f823e3d601f19601f820116820180604052508101906107ba9190611704565b92505f8054906101000a900473ffffffffffffffffffffffffffffffffffffffff1673ffffffffffffffffffffffffffffffffffffffff166395d89b416040518163ffffffff1660e01b81526004015f60405180830381865afa158015610823573d5f803e3d5ffd5b505050506040513d5f823e3d601f19601f8201168201806040525081019061084b9190611704565b91505f8054906101000a900473ffffffffffffffffffffffffffffffffffffffff1673ffffffffffffffffffffffffffffffffffffffff1663313ce5676040518163ffffffff1660e01b8152600401602060405180830381865afa1580156108b5573d5f803e3d5ffd5b505050506040513d601f19601f820116820180604052508101906108d99190611775565b9050909192565b5f600180549050905090565b5f805f9054906101000a900473ffffffffffffffffffffffffffffffffffffffff1673ffffffffffffffffffffffffffffffffffffffff1663e064b9bb87878787876040518663ffffffff1660e01b815260040161094e9594939291906117a0565b6020604051808303815f875af115801561096a573d5f803e3d5ffd5b505050506040513d601f19601f8201168201806040525081019061098e9190611268565b905095945050505050565b5f805f9054906101000a900473ffffffffffffffffffffffffffffffffffffffff1673ffffffffffffffffffffffffffffffffffffffff1663540952276040518163ffffffff1660e01b8152600401602060405180830381865afa158015610a03573d5f803e3d5ffd5b505050506040513d601f19601f82011682018060405250810190610a279190611268565b905090565b5f8054906101000a900473ffffffffffffffffffffffffffffffffffffffff1673ffffffffffffffffffffffffffffffffffffffff1663d4febb9683836040518363ffffffff1660e01b8152600401610a869291906117fb565b5f604051808303815f87803b158015610a9d575f80fd5b505af1158015610aaf573d5f803e3d5ffd5b505050505050565b5f8060605f8060018681548110610ad157610ad0611822565b5b905f5260205f2090600402019050805f015f9054906101000a900473ffffffffffffffffffffffffffffffffffffffff168160010154826002018360030154818054610b1c9061120b565b80601f0160208091040260200160405190810160405280929190818152602001828054610b489061120b565b8015610b935780601f10610b6a57610100808354040283529160200191610b93565b820191905f5260205f20905b815481529060010190602001808311610b7657829003601f168201915b505050505091509450945094509450509193509193565b5f8054906101000a900473ffffffffffffffffffffffffffffffffffffffff1681565b5f604051905090565b5f80fd5b5f80fd5b5f819050919050565b610bf081610bde565b8114610bfa575f80fd5b50565b5f81359050610c0b81610be7565b92915050565b5f60208284031215610c2657610c25610bd6565b5b5f610c3384828501610bfd565b91505092915050565b5f73ffffffffffffffffffffffffffffffffffffffff82169050919050565b5f610c6582610c3c565b9050919050565b610c7581610c5b565b82525050565b5f819050919050565b610c8d81610c7b565b82525050565b5f81519050919050565b5f82825260208201905092915050565b5f5b83811015610cca578082015181840152602081019050610caf565b5f8484015250505050565b5f601f19601f8301169050919050565b5f610cef82610c93565b610cf98185610c9d565b9350610d09818560208601610cad565b610d1281610cd5565b840191505092915050565b610d2681610bde565b82525050565b5f608082019050610d3f5f830187610c6c565b610d4c6020830186610c84565b8181036040830152610d5e8185610ce5565b9050610d6d6060830184610d1d565b95945050505050565b610d7f81610c5b565b8114610d89575f80fd5b50565b5f81359050610d9a81610d76565b92915050565b5f60208284031215610db557610db4610bd6565b5b5f610dc284828501610d8c565b91505092915050565b5f602082019050610dde5f830184610c84565b92915050565b610ded81610c7b565b8114610df7575f80fd5b50565b5f81359050610e0881610de4565b92915050565b5f80fd5b5f80fd5b5f80fd5b5f8083601f840112610e2f57610e2e610e0e565b5b8235905067ffffffffffffffff811115610e4c57610e4b610e12565b5b602083019150836001820283011115610e6857610e67610e16565b5b9250929050565b5f805f8060608587031215610e8757610e86610bd6565b5b5f610e9487828801610d8c565b9450506020610ea587828801610dfa565b935050604085013567ffffffffffffffff811115610ec657610ec5610bda565b5b610ed287828801610e1a565b925092505092959194509250565b5f7fffffffff0000000000000000000000000000000000000000000000000000000082169050919050565b610f1481610ee0565b82525050565b5f602082019050610f2d5f830184610f0b565b92915050565b5f8060408385031215610f4957610f48610bd6565b5b5f610f5685828601610d8c565b9250506020610f6785828601610d8c565b9150509250929050565b5f8115159050919050565b610f8581610f71565b82525050565b5f602082019050610f9e5f830184610f7c565b92915050565b5f81519050919050565b5f82825260208201905092915050565b5f610fc882610fa4565b610fd28185610fae565b9350610fe2818560208601610cad565b610feb81610cd5565b840191505092915050565b5f60ff82169050919050565b61100b81610ff6565b82525050565b5f6060820190508181035f8301526110298186610fbe565b9050818103602083015261103d8185610fbe565b905061104c6040830184611002565b949350505050565b5f6020820190506110675f830184610d1d565b92915050565b5f805f805f6080868803121561108657611085610bd6565b5b5f61109388828901610d8c565b95505060206110a488828901610d8c565b94505060406110b588828901610dfa565b935050606086013567ffffffffffffffff8111156110d6576110d5610bda565b5b6110e288828901610e1a565b92509250509295509295909350565b5f65ffffffffffff82169050919050565b61110b816110f1565b8114611115575f80fd5b50565b5f8135905061112681611102565b92915050565b5f806040838503121561114257611141610bd6565b5b5f61114f85828601610d8c565b925050602061116085828601611118565b9150509250929050565b5f819050919050565b5f61118d61118861118384610c3c565b61116a565b610c3c565b9050919050565b5f61119e82611173565b9050919050565b5f6111af82611194565b9050919050565b6111bf816111a5565b82525050565b5f6020820190506111d85f8301846111b6565b92915050565b7f4e487b71000000000000000000000000000000000000000000000000000000005f52602260045260245ffd5b5f600282049050600182168061122257607f821691505b602082108103611235576112346111de565b5b50919050565b5f60208201905061124e5f830184610c6c565b92915050565b5f8151905061126281610de4565b92915050565b5f6020828403121561127d5761127c610bd6565b5b5f61128a84828501611254565b91505092915050565b7f4e487b71000000000000000000000000000000000000000000000000000000005f52604160045260245ffd5b5f819050815f5260205f209050919050565b5f6020601f8301049050919050565b5f82821b905092915050565b5f6008830261131c7fffffffffffffffffffffffffffffffffffffffffffffffffffffffffffffffff826112e1565b61132686836112e1565b95508019841693508086168417925050509392505050565b5f61135861135361134e84610bde565b61116a565b610bde565b9050919050565b5f819050919050565b6113718361133e565b61138561137d8261135f565b8484546112ed565b825550505050565b5f90565b61139961138d565b6113a4818484611368565b505050565b5b818110156113c7576113bc5f82611391565b6001810190506113aa565b5050565b601f82111561140c576113dd816112c0565b6113e6846112d2565b810160208510156113f5578190505b611409611401856112d2565b8301826113a9565b50505b505050565b5f82821c905092915050565b5f61142c5f1984600802611411565b1980831691505092915050565b5f611444838361141d565b9150826002028217905092915050565b61145d82610c93565b67ffffffffffffffff81111561147657611475611293565b5b611480825461120b565b61148b8282856113cb565b5f60209050601f8311600181146114bc575f84156114aa578287015190505b6114b48582611439565b86555061151b565b601f1984166114ca866112c0565b5f5b828110156114f1578489015182556001820191506020850194506020810190506114cc565b8683101561150e578489015161150a601f89168261141d565b8355505b6001600288020188555050505b505050505050565b828183375f83830152505050565b5f61153c8385610c9d565b9350611549838584611523565b61155283610cd5565b840190509392505050565b5f6060820190506115705f830187610c6c565b61157d6020830186610c84565b8181036040830152611590818486611531565b905095945050505050565b5f6040820190506115ae5f830185610c6c565b6115bb6020830184610c6c565b9392505050565b6115cb81610f71565b81146115d5575f80fd5b50565b5f815190506115e6816115c2565b92915050565b5f6020828403121561160157611600610bd6565b5b5f61160e848285016115d8565b91505092915050565b5f80fd5b61162482610cd5565b810181811067ffffffffffffffff8211171561164357611642611293565b5b80604052505050565b5f611655610bcd565b9050611661828261161b565b919050565b5f67ffffffffffffffff8211156116805761167f611293565b5b61168982610cd5565b9050602081019050919050565b5f6116a86116a384611666565b61164c565b9050828152602081018484840111156116c4576116c3611617565b5b6116cf848285610cad565b509392505050565b5f82601f8301126116eb576116ea610e0e565b5b81516116fb848260208601611696565b91505092915050565b5f6020828403121561171957611718610bd6565b5b5f82015167ffffffffffffffff81111561173657611735610bda565b5b611742848285016116d7565b91505092915050565b61175481610ff6565b811461175e575f80fd5b50565b5f8151905061176f8161174b565b92915050565b5f6020828403121561178a57611789610bd6565b5b5f61179784828501611761565b91505092915050565b5f6080820190506117b35f830188610c6c565b6117c06020830187610c6c565b6117cd6040830186610c84565b81810360608301526117e0818486611531565b90509695505050505050565b6117f5816110f1565b82525050565b5f60408201905061180e5f830185610c6c565b61181b60208301846117ec565b9392505050565b7f4e487b71000000000000000000000000000000000000000000000000000000005f52603260045260245ffdfea2646970667358221220a7035dec21df01c0b73475470dfa9682871e89625fe0453c8dd23107c6bac73864736f6c63430008140033","linkReferences":{}},"methodIdentifiers":{"approveOperator(address,uint48)":"bae7ef6d","checkOperator(address,address)":"668d40ce","getReceivedTransfer(uint256)":"c8544ef1","getReceivedTransferCount()":"73c3823d","initiateTransfer(address,bytes32,bytes)":"51195283","initiateTransferFrom(address,address,bytes32,bytes)":"9568c576","onConfidentialTokenReceived(address,bytes32,bytes)":"3a2bb8a7","queryBalance(address)":"37f42841","queryMetadata()":"7117b877","queryTotalSupply()":"9f768f20","receivedTransfers(uint256)":"2cb5a743","token()":"fc0c546a"},"id":3}