{"abi":[{"type":"function","name":"onConfidentialTokenReceived","inputs":[{"name":"","type":"address","internalType":"address"},{"name":"","type":"bytes32","internalType":"bytes32"},{"name":"","type":"bytes","internalType":"bytes"}],"outputs":[{"name":"","type":"bytes4","internalType":"bytes4"}],"stateMutability":"pure"}],"bytecode":{"object":"0x608060405234801561000f575f80fd5b506102608061001d5f395ff3fe608060405234801561000f575f80fd5b5060043610610029575f3560e01c80633a2bb8a71461002d575b5f80fd5b61004760048036038101906100429190610166565b61005d565b6040516100549190610211565b60405180910390f35b5f63deadbeef60e01b9050949350505050565b5f80fd5b5f80fd5b5f73ffffffffffffffffffffffffffffffffffffffff82169050919050565b5f6100a182610078565b9050919050565b6100b181610097565b81146100bb575f80fd5b50565b5f813590506100cc816100a8565b92915050565b5f819050919050565b6100e4816100d2565b81146100ee575f80fd5b50565b5f813590506100ff816100db565b92915050565b5f80fd5b5f80fd5b5f80fd5b5f8083601f84011261012657610125610105565b5b8235905067ffffffffffffffff81111561014357610142610109565b5b60208301915083600182028301111561015f5761015e61010d565b5b9250929050565b5f805f806060858703121561017e5761017d610070565b5b5f61018b878288016100be565b945050602061019c878288016100f1565b935050604085013567ffffffffffffffff8111156101bd576101bc610074565b5b6101c987828801610111565b925092505092959194509250565b5f7fffffffff0000000000000000000000000000000000000000000000000000000082169050919050565b61020b816101d7565b82525050565b5f6020820190506102245f830184610202565b9291505056fea26469706673582212207fb0e7ff4106fd959095446d2534087514e52af70c865f6f1aaafdc51576ecc164736f6c63430008140033","linkReferences":{}},"methodIdentifiers":{"onConfidentialTokenReceived(address,bytes32,bytes)":"3a2bb8a7"},"id":3}