{"abi":[{"type":"function","name":"onConfidentialTokenReceived","inputs":[{"name":"","type":"address","internalType":"address"},{"name":"","type":"bytes32","internalType":"bytes32"},{"name":"","type":"bytes","internalType":"bytes"}],"outputs":[{"name":"","type":"bytes4","internalType":"bytes4"}],"stateMutability":"pure"},{"type":"error","name":"AlwaysReverts","inputs":[]}],"bytecode":{"object":"0x608060405234801561000f575f80fd5b5061013a8061001d5f395ff3fe608060405234801561000f575f80fd5b5060043610610029575f3560e01c80633a2bb8a71461002d575b5f80fd5b61004061003b366004610077565b61005d565b6040516001600160e01b0319909116815260200160405180910390f35b5f6040516311f9e53b60e21b815260040160405180910390fd5b5f805f806060858703121561008a575f80fd5b84356001600160a01b03811681146100a0575f80fd5b935060208501359250604085013567ffffffffffffffff808211156100c3575f80fd5b818701915087601f8301126100d6575f80fd5b8135818111156100e4575f80fd5b8860208285010111156100f5575f80fd5b9598949750506020019450505056fea26469706673582212204864c697b2ea56e4e4b27081652a90cba102672fb6c4968c80def608304e6d9464736f6c63430008140033","linkReferences":{}},"methodIdentifiers":{"onConfidentialTokenReceived(address,bytes32,bytes)":"3a2bb8a7"},"id":4}