{"abi":[{"type":"constructor","inputs":[{"name":"_token","type":"address","internalType":"contract IERC7984"}],"stateMutability":"nonpayable"},{"type":"function","name":"approveOperator","inputs":[{"name":"operator","type":"address","internalType":"address"},{"name":"until","type":"uint48","internalType":"uint48"}],"outputs":[],"stateMutability":"nonpayable"},{"type":"function","name":"checkOperator","inputs":[{"name":"holder","type":"address","internalType":"address"},{"name":"operator","type":"address","internalType":"address"}],"outputs":[{"name":"","type":"bool","internalType":"bool"}],"stateMutability":"view"},{"type":"function","name":"getReceivedTransfer","inputs":[{"name":"index","type":"uint256","internalType":"uint256"}],"outputs":[{"name":"from","type":"address","internalType":"address"},{"name":"amount","type":"bytes32","internalType":"bytes32"},{"name":"data","type":"bytes","internalType":"bytes"},{"name":"timestamp","type":"uint256","internalType":"uint256"}],"stateMutability":"view"},{"type":"function","name":"getReceivedTransferCount","inputs":[],"outputs":[{"name":"","type":"uint256","internalType":"uint256"}],"stateMutability":"view"},{"type":"function","name":"initiateTransfer","inputs":[{"name":"to","type":"address","internalType":"address"},{"name":"amount","type":"bytes32","internalType":"bytes32"},{"name":"data","type":"bytes","internalType":"bytes"}],"outputs":[{"name":"","type":"bytes32","internalType":"bytes32"}],"stateMutability":"nonpayable"},{"type":"function","name":"initiateTransferFrom","inputs":[{"name":"from","type":"address","internalType":"address"},{"name":"to","type":"address","internalType":"address"},{"name":"amount","type":"bytes32","internalType":"bytes32"},{"name":"data","type":"bytes","internalType":"bytes"}],"outputs":[{"name":"","type":"bytes32","internalType":"bytes32"}],"stateMutability":"nonpayable"},{"type":"function","name":"onConfidentialTokenReceived","inputs":[{"name":"from","type":"address","internalType":"address"},{"name":"amount","type":"bytes32","internalType":"bytes32"},{"name":"data","type":"bytes","internalType":"bytes"}],"outputs":[{"name":"","type":"bytes4","internalType":"bytes4"}],"stateMutability":"nonpayable"},{"type":"function","name":"queryBalance","inputs":[{"name":"account","type":"address","internalType":"address"}],"outputs":[{"name":"balance","type":"bytes32","internalType":"bytes32"}],"stateMutability":"nonpayable"},{"type":"function","name":"queryMetadata","inputs":[],"outputs":[{"name":"tokenName","type":"string","internalType":"string"},{"name":"tokenSymbol","type":"string","internalType":"string"},{"name":"tokenDecimals","type":"uint8","internalType":"uint8"}],"stateMutability":"view"},{"type":"function","name":"queryTotalSupply","inputs":[],"outputs":[{"name":"","type":"bytes32","internalType":"bytes32"}],"stateMutability":"view"},{"type":"function","name":"receivedTransfers","inputs":[{"name":"","type":"uint256","internalType":"uint256"}],"outputs":[{"name":"from","type":"address","internalType":"address"},{"name":"amount","type":"bytes32","internalType":"bytes32"},{"name":"data","type":"bytes","internalType":"bytes"},{"name":"timestamp","type":"uint256","internalType":"uint256"}],"stateMutability":"view"},{"type":"function","name":"token","inputs":[],"outputs":[{"name":"","type":"address","internalType":"contract IERC7984"}],"stateMutability":"view"},{"type":"event","name":"BalanceQueried","inputs":[{"name":"account","type":"address","indexed":true,"internalType":"address"},{"name":"balance","type":"bytes32","indexed":false,"internalType":"bytes32"}],"anonymous":false},{"type":"event","name":"TransferReceived","inputs":[{"name":"from","type":"address","indexed":true,"internalType":"address"},{"name":"amount","type":"bytes32","indexed":true,"internalType":"bytes32"}],"anonymous":false}],"bytecode":{"object":"0x608060405234801561000f575f80fd5b50604051610f51380380610f5183398101604081905261002e91610052565b5f80546001600160a01b0319166001600160a01b039290921691909117905561007f565b5f60208284031215610062575f80fd5b81516001600160a01b0381168114610078575f80fd5b9392505050565b610ec58061008c5f395ff3fe608060405234801561000f575f80fd5b50600436106100b1575f3560e01c806373c3823d1161006e57806373c3823d1461017b5780639568c576146101835780639f768f2014610196578063bae7ef6d1461019e578063c8544ef1146101b3578063fc0c546a146101c6575f80fd5b80632cb5a743146100b557806337f42841146100e15780633a2bb8a714610102578063511952831461012e578063668d40ce146101415780637117b87714610164575b5f80fd5b6100c86100c336600461092d565b6101f0565b6040516100d89493929190610991565b60405180910390f35b6100f46100ef3660046109e3565b6102bb565b6040519081526020016100d8565b610115610110366004610a41565b610371565b6040516001600160e01b031990911681526020016100d8565b6100f461013c366004610a41565b61047e565b61015461014f366004610a97565b6104fd565b60405190151581526020016100d8565b61016c610578565b6040516100d893929190610ac8565b6001546100f4565b6100f4610191366004610b00565b6106e2565b6100f4610764565b6101b16101ac366004610b6a565b6107dd565b005b6100c86101c136600461092d565b610848565b5f546101d8906001600160a01b031681565b6040516001600160a01b0390911681526020016100d8565b600181815481106101ff575f80fd5b5f9182526020909120600490910201805460018201546002830180546001600160a01b03909316945090929161023490610ba9565b80601f016020809104026020016040519081016040528092919081815260200182805461026090610ba9565b80156102ab5780601f10610282576101008083540402835291602001916102ab565b820191905f5260205f20905b81548152906001019060200180831161028e57829003601f168201915b5050505050908060030154905084565b5f805460405163344ff10160e01b81526001600160a01b0384811660048301529091169063344ff10190602401602060405180830381865afa158015610303573d5f803e3d5ffd5b505050506040513d601f19601f820116820180604052508101906103279190610be1565b9050816001600160a01b03167fa41b43def7344741ba8847464b76abc03a095d9f0c5a4a628ea6df71c47f85ba8260405161036491815260200190565b60405180910390a2919050565b5f60016040518060800160405280876001600160a01b0316815260200186815260200185858080601f0160208091040260200160405190810160405280939291908181526020018383808284375f9201829052509385525050426020938401525083546001808201865594825290829020835160049092020180546001600160a01b0319166001600160a01b039092169190911781559082015192810192909255604081015190919060028201906104299082610c56565b5060608201518160030155505083856001600160a01b03167f60551093b5921918e4033f07be0e1e50c63a6fcc21f0f3ba124662dec2f9854c60405160405180910390a350633a2bb8a760e01b949350505050565b5f80546040516317dba73160e11b81526001600160a01b0390911690632fb74e62906104b4908890889088908890600401610d3a565b6020604051808303815f875af11580156104d0573d5f803e3d5ffd5b505050506040513d601f19601f820116820180604052508101906104f49190610be1565b95945050505050565b5f8054604051635b1b1e7960e11b81526001600160a01b03858116600483015284811660248301529091169063b6363cf290604401602060405180830381865afa15801561054d573d5f803e3d5ffd5b505050506040513d601f19601f820116820180604052508101906105719190610d61565b9392505050565b6060805f805f9054906101000a90046001600160a01b03166001600160a01b03166306fdde036040518163ffffffff1660e01b81526004015f60405180830381865afa1580156105ca573d5f803e3d5ffd5b505050506040513d5f823e601f3d908101601f191682016040526105f19190810190610d80565b92505f8054906101000a90046001600160a01b03166001600160a01b03166395d89b416040518163ffffffff1660e01b81526004015f60405180830381865afa158015610640573d5f803e3d5ffd5b505050506040513d5f823e601f3d908101601f191682016040526106679190810190610d80565b91505f8054906101000a90046001600160a01b03166001600160a01b031663313ce5676040518163ffffffff1660e01b8152600401602060405180830381865afa1580156106b7573d5f803e3d5ffd5b505050506040513d601f19601f820116820180604052508101906106db9190610e28565b9050909192565b5f805460405163e064b9bb60e01b81526001600160a01b039091169063e064b9bb9061071a9089908990899089908990600401610e48565b6020604051808303815f875af1158015610736573d5f803e3d5ffd5b505050506040513d601f19601f8201168201806040525081019061075a9190610be1565b9695505050505050565b5f805f9054906101000a90046001600160a01b03166001600160a01b031663540952276040518163ffffffff1660e01b8152600401602060405180830381865afa1580156107b4573d5f803e3d5ffd5b505050506040513d601f19601f820116820180604052508101906107d89190610be1565b905090565b5f54604051636a7f5dcb60e11b81526001600160a01b03848116600483015265ffffffffffff841660248301529091169063d4febb96906044015f604051808303815f87803b15801561082e575f80fd5b505af1158015610840573d5f803e3d5ffd5b505050505050565b5f8060605f806001868154811061086157610861610e7b565b905f5260205f2090600402019050805f015f9054906101000a90046001600160a01b0316816001015482600201836003015481805461089f90610ba9565b80601f01602080910402602001604051908101604052809291908181526020018280546108cb90610ba9565b80156109165780601f106108ed57610100808354040283529160200191610916565b820191905f5260205f20905b8154815290600101906020018083116108f957829003601f168201915b505050505091509450945094509450509193509193565b5f6020828403121561093d575f80fd5b5035919050565b5f5b8381101561095e578181015183820152602001610946565b50505f910152565b5f815180845261097d816020860160208601610944565b601f01601f19169290920160200192915050565b60018060a01b0385168152836020820152608060408201525f6109b76080830185610966565b905082606083015295945050505050565b80356001600160a01b03811681146109de575f80fd5b919050565b5f602082840312156109f3575f80fd5b610571826109c8565b5f8083601f840112610a0c575f80fd5b50813567ffffffffffffffff811115610a23575f80fd5b602083019150836020828501011115610a3a575f80fd5b9250929050565b5f805f8060608587031215610a54575f80fd5b610a5d856109c8565b935060208501359250604085013567ffffffffffffffff811115610a7f575f80fd5b610a8b878288016109fc565b95989497509550505050565b5f8060408385031215610aa8575f80fd5b610ab1836109c8565b9150610abf602084016109c8565b90509250929050565b606081525f610ada6060830186610966565b8281036020840152610aec8186610966565b91505060ff83166040830152949350505050565b5f805f805f60808688031215610b14575f80fd5b610b1d866109c8565b9450610b2b602087016109c8565b935060408601359250606086013567ffffffffffffffff811115610b4d575f80fd5b610b59888289016109fc565b969995985093965092949392505050565b5f8060408385031215610b7b575f80fd5b610b84836109c8565b9150602083013565ffffffffffff81168114610b9e575f80fd5b809150509250929050565b600181811c90821680610bbd57607f821691505b602082108103610bdb57634e487b7160e01b5f52602260045260245ffd5b50919050565b5f60208284031215610bf1575f80fd5b5051919050565b634e487b7160e01b5f52604160045260245ffd5b601f821115610c51575f81815260208120601f850160051c81016020861015610c325750805b601f850160051c820191505b8181101561084057828155600101610c3e565b505050565b815167ffffffffffffffff811115610c7057610c70610bf8565b610c8481610c7e8454610ba9565b84610c0c565b602080601f831160018114610cb7575f8415610ca05750858301515b5f19600386901b1c1916600185901b178555610840565b5f85815260208120601f198616915b82811015610ce557888601518255948401946001909101908401610cc6565b5085821015610d0257878501515f19600388901b60f8161c191681555b5050505050600190811b01905550565b81835281816020850137505f828201602090810191909152601f909101601f19169091010190565b60018060a01b0385168152836020820152606060408201525f61075a606083018486610d12565b5f60208284031215610d71575f80fd5b81518015158114610571575f80fd5b5f60208284031215610d90575f80fd5b815167ffffffffffffffff80821115610da7575f80fd5b818401915084601f830112610dba575f80fd5b815181811115610dcc57610dcc610bf8565b604051601f8201601f19908116603f01168101908382118183101715610df457610df4610bf8565b81604052828152876020848701011115610e0c575f80fd5b610e1d836020830160208801610944565b979650505050505050565b5f60208284031215610e38575f80fd5b815160ff81168114610571575f80fd5b6001600160a01b03868116825285166020820152604081018490526080606082018190525f90610e1d9083018486610d12565b634e487b7160e01b5f52603260045260245ffdfea2646970667358221220588f1f121186bc0f9c5868e53dde08b6b3246cd1b11eefd9355aaeaa0855b6c764736f6c63430008140033","linkReferences":{}},"methodIdentifiers":{"approveOperator(address,uint48)":"bae7ef6d","checkOperator(address,address)":"668d40ce","getReceivedTransfer(uint256)":"c8544ef1","getReceivedTransferCount()":"73c3823d","initiateTransfer(address,bytes32,bytes)":"51195283","initiateTransferFrom(address,address,bytes32,bytes)":"9568c576","onConfidentialTokenReceived(address,bytes32,bytes)":"3a2bb8a7","queryBalance(address)":"37f42841","queryMetadata()":"7117b877","queryTotalSupply()":"9f768f20","receivedTransfers(uint256)":"2cb5a743","token()":"fc0c546a"},"id":4}