{"abi":[{"type":"constructor","inputs":[{"name":"_assetId","type":"uint128","internalType":"uint128"},{"name":"tokenName","type":"string","internalType":"string"},{"name":"tokenSymbol","type":"string","internalType":"string"},{"name":"tokenDecimals","type":"uint8","internalType":"uint8"}],"stateMutability":"nonpayable"},{"type":"function","name":"PRECOMPILE","inputs":[],"outputs":[{"name":"","type":"address","internalType":"contract IConfidentialAssets"}],"stateMutability":"view"},{"type":"function","name":"assetId","inputs":[],"outputs":[{"name":"","type":"uint128","internalType":"uint128"}],"stateMutability":"view"},{"type":"function","name":"claim","inputs":[{"name":"proof","type":"bytes","internalType":"bytes"}],"outputs":[],"stateMutability":"nonpayable"},{"type":"function","name":"confidentialBalanceOf","inputs":[{"name":"account","type":"address","internalType":"address"}],"outputs":[{"name":"","type":"bytes32","internalType":"bytes32"}],"stateMutability":"view"},{"type":"function","name":"confidentialTotalSupply","inputs":[],"outputs":[{"name":"","type":"bytes32","internalType":"bytes32"}],"stateMutability":"view"},{"type":"function","name":"confidentialTransfer","inputs":[{"name":"to","type":"address","internalType":"address"},{"name":"amount","type":"bytes32","internalType":"bytes32"},{"name":"data","type":"bytes","internalType":"bytes"}],"outputs":[{"name":"","type":"bytes32","internalType":"bytes32"}],"stateMutability":"nonpayable"},{"type":"function","name":"confidentialTransfer","inputs":[{"name":"to","type":"address","internalType":"address"},{"name":"amount","type":"bytes32","internalType":"bytes32"}],"outputs":[{"name":"","type":"bytes32","internalType":"bytes32"}],"stateMutability":"nonpayable"},{"type":"function","name":"confidentialTransferFrom","inputs":[{"name":"from","type":"address","internalType":"address"},{"name":"to","type":"address","internalType":"address"},{"name":"amount","type":"bytes32","internalType":"bytes32"},{"name":"data","type":"bytes","internalType":"bytes"}],"outputs":[{"name":"","type":"bytes32","internalType":"bytes32"}],"stateMutability":"nonpayable"},{"type":"function","name":"confidentialTransferFrom","inputs":[{"name":"from","type":"address","internalType":"address"},{"name":"to","type":"address","internalType":"address"},{"name":"amount","type":"bytes32","internalType":"bytes32"}],"outputs":[{"name":"","type":"bytes32","internalType":"bytes32"}],"stateMutability":"nonpayable"},{"type":"function","name":"decimals","inputs":[],"outputs":[{"name":"","type":"uint8","internalType":"uint8"}],"stateMutability":"view"},{"type":"function","name":"deposit","inputs":[{"name":"amount","type":"uint256","internalType":"uint256"},{"name":"proof","type":"bytes","internalType":"bytes"}],"outputs":[],"stateMutability":"nonpayable"},{"type":"function","name":"isOperator","inputs":[{"name":"holder","type":"address","internalType":"address"},{"name":"spender","type":"address","internalType":"address"}],"outputs":[{"name":"","type":"bool","internalType":"bool"}],"stateMutability":"view"},{"type":"function","name":"name","inputs":[],"outputs":[{"name":"","type":"string","internalType":"string"}],"stateMutability":"view"},{"type":"function","name":"setOperator","inputs":[{"name":"operator","type":"address","internalType":"address"},{"name":"until","type":"uint48","internalType":"uint48"}],"outputs":[],"stateMutability":"nonpayable"},{"type":"function","name":"setPublicKey","inputs":[{"name":"pubkey","type":"bytes","internalType":"bytes"}],"outputs":[],"stateMutability":"nonpayable"},{"type":"function","name":"symbol","inputs":[],"outputs":[{"name":"","type":"string","internalType":"string"}],"stateMutability":"view"},{"type":"function","name":"withdraw","inputs":[{"name":"encryptedAmount","type":"bytes","internalType":"bytes"},{"name":"proof","type":"bytes","internalType":"bytes"}],"outputs":[],"stateMutability":"nonpayable"},{"type":"event","name":"AmountDisclosed","inputs":[{"name":"handle","type":"bytes32","indexed":true,"internalType":"bytes32"},{"name":"amount","type":"uint256","indexed":false,"internalType":"uint256"}],"anonymous":false},{"type":"event","name":"ConfidentialTransfer","inputs":[{"name":"from","type":"address","indexed":true,"internalType":"address"},{"name":"to","type":"address","indexed":true,"internalType":"address"},{"name":"amount","type":"bytes32","indexed":true,"internalType":"bytes32"}],"anonymous":false},{"type":"event","name":"OperatorSet","inputs":[{"name":"holder","type":"address","indexed":true,"internalType":"address"},{"name":"operator","type":"address","indexed":true,"internalType":"address"},{"name":"until","type":"uint48","indexed":false,"internalType":"uint48"}],"anonymous":false},{"type":"error","name":"InvalidData","inputs":[]},{"type":"error","name":"ReceiverRejected","inputs":[]},{"type":"error","name":"Unauthorized","inputs":[]}],"bytecode":{"object":"0x60a060405234801562000010575f80fd5b5060405162001461380380620014618339810160408190526200003391620002f1565b6001600160801b0384166080528251156200005c575f62000055848262000414565b50620000d9565b604051636312220560e11b81526001600160801b03851660048201526108009063c624440a906024015f60405180830381865afa158015620000a0573d5f803e3d5ffd5b505050506040513d5f823e601f3d908101601f19168201604052620000c99190810190620004dc565b5f90620000d7908262000414565b505b815115620000f6576001620000ef838262000414565b5062000174565b60405163045fc49960e21b81526001600160801b03851660048201526108009063117f1264906024015f60405180830381865afa1580156200013a573d5f803e3d5ffd5b505050506040513d5f823e601f3d908101601f19168201604052620001639190810190620004dc565b60019062000172908262000414565b505b60ff81161562000193576002805460ff191660ff831617905562000213565b604051630274be6d60e21b81526001600160801b0385166004820152610800906309d2f9b490602401602060405180830381865afa158015620001d8573d5f803e3d5ffd5b505050506040513d601f19601f82011682018060405250810190620001fe919062000519565b6002805460ff191660ff929092169190911790555b505050506200053c565b634e487b7160e01b5f52604160045260245ffd5b5f82601f83011262000241575f80fd5b81516001600160401b03808211156200025e576200025e6200021d565b604051601f8301601f19908116603f011681019082821181831017156200028957620002896200021d565b81604052838152602092508683858801011115620002a5575f80fd5b5f91505b83821015620002c85785820183015181830184015290820190620002a9565b5f93810190920192909252949350505050565b805160ff81168114620002ec575f80fd5b919050565b5f805f806080858703121562000305575f80fd5b84516001600160801b03811681146200031c575f80fd5b60208601519094506001600160401b038082111562000339575f80fd5b620003478883890162000231565b945060408701519150808211156200035d575f80fd5b506200036c8782880162000231565b9250506200037d60608601620002db565b905092959194509250565b600181811c908216806200039d57607f821691505b602082108103620003bc57634e487b7160e01b5f52602260045260245ffd5b50919050565b601f8211156200040f575f81815260208120601f850160051c81016020861015620003ea5750805b601f850160051c820191505b818110156200040b57828155600101620003f6565b5050505b505050565b81516001600160401b038111156200043057620004306200021d565b620004488162000441845462000388565b84620003c2565b602080601f8311600181146200047e575f8415620004665750858301515b5f19600386901b1c1916600185901b1785556200040b565b5f85815260208120601f198616915b82811015620004ae578886015182559484019460019091019084016200048d565b5085821015620004cc57878501515f19600388901b60f8161c191681555b5050505050600190811b01905550565b5f60208284031215620004ed575f80fd5b81516001600160401b0381111562000503575f80fd5b620005118482850162000231565b949350505050565b5f602082840312156200052a575f80fd5b6200053582620002db565b9392505050565b608051610ee26200057f5f395f8181610197015281816103870152818161042c015281816104e901528181610598015281816106aa01526107db0152610ee25ff3fe608060405234801561000f575f80fd5b5060043610610106575f3560e01c80635bebed7e1161009e578063b6363cf21161006e578063b6363cf21461022f578063c63ff8dd14610283578063d4febb9614610296578063e064b9bb146102a9578063eb3155b5146102bc575f80fd5b80635bebed7e146101ee5780635d3035191461020157806395d89b4114610214578063a91d58b41461021c575f80fd5b8063344ff101116100d9578063344ff1011461017f57806344de240a1461019257806350fbe2d9146101d157806354095227146101e6575f80fd5b806306fdde031461010a5780630709d0b1146101285780632fb74e6214610149578063313ce5671461016a575b5f80fd5b6101126102ca565b60405161011f919061091c565b60405180910390f35b61013161080081565b6040516001600160a01b03909116815260200161011f565b61015c610157366004610995565b610359565b60405190815260200161011f565b60025460405160ff909116815260200161011f565b61015c61018d3660046109eb565b610370565b6101b97f000000000000000000000000000000000000000000000000000000000000000081565b6040516001600160801b03909116815260200161011f565b6101e46101df366004610a04565b61040f565b005b61015c6104d2565b61015c6101fc366004610a5f565b610561565b6101e461020f366004610a87565b61057b565b610112610626565b6101e461022a366004610acf565b610635565b61027361023d366004610b0e565b6001600160a01b039182165f9081526003602090815260408083209390941682529190915220544265ffffffffffff9091161190565b604051901515815260200161011f565b6101e4610291366004610acf565b61068d565b6101e46102a4366004610b3f565b6106d6565b61015c6102b7366004610b7e565b61074c565b61015c6101fc366004610be8565b60605f80546102d890610c21565b80601f016020809104026020016040519081016040528092919081815260200182805461030490610c21565b801561034f5780601f106103265761010080835404028352916020019161034f565b820191905f5260205f20905b81548152906001019060200180831161033257829003601f168201915b5050505050905090565b5f610367338686868661078a565b50919392505050565b60405163cd40095b60e01b81526001600160801b037f00000000000000000000000000000000000000000000000000000000000000001660048201526001600160a01b03821660248201525f906108009063cd40095b90604401602060405180830381865afa1580156103e5573d5f803e3d5ffd5b505050506040513d601f19601f820116820180604052508101906104099190610c59565b92915050565b60405163f1f9153b60e01b81526108009063f1f9153b9061045c907f0000000000000000000000000000000000000000000000000000000000000000908890889088908890600401610c98565b5f604051808303815f87803b158015610473575f80fd5b505af1158015610485573d5f803e3d5ffd5b505050508383604051610499929190610cd9565b604051908190038120905f9033907f67500e8d0ed826d2194f514dd0d8124f35648ab6e3fb5e6ed867134cffe661e9908390a450505050565b60405163efa1864160e01b81526001600160801b037f00000000000000000000000000000000000000000000000000000000000000001660048201525f906108009063efa1864190602401602060405180830381865afa158015610538573d5f803e3d5ffd5b505050506040513d601f19601f8201168201806040525081019061055c9190610c59565b905090565b5f604051635cb045db60e01b815260040160405180910390fd5b6040516394679bd160e01b8152610800906394679bd1906105c6907f000000000000000000000000000000000000000000000000000000000000000090879087908790600401610ce8565b5f604051808303815f87803b1580156105dd575f80fd5b505af11580156105ef573d5f803e3d5ffd5b50506040518592503391505f907f67500e8d0ed826d2194f514dd0d8124f35648ab6e3fb5e6ed867134cffe661e9908290a4505050565b6060600180546102d890610c21565b604051632a47562d60e21b81526108009063a91d58b49061065c9085908590600401610d1a565b5f604051808303815f87803b158015610673575f80fd5b505af1158015610685573d5f803e3d5ffd5b505050505050565b60405163025973b160e31b8152610800906312cb9d889061065c907f00000000000000000000000000000000000000000000000000000000000000009086908690600401610d35565b335f8181526003602090815260408083206001600160a01b03871680855290835292819020805465ffffffffffff191665ffffffffffff871690811790915590519081529192917f921a218a75d18e8ec5704851e6b234a85725b21a2521ce889622c35dedc1fa12910160405180910390a35050565b5f6107578633610880565b610773576040516282b42960e81b815260040160405180910390fd5b610780868686868661078a565b5091949350505050565b5f8061079883850185610dfd565b9150915081516040146107be57604051635cb045db60e01b815260040160405180910390fd5b60405163f49a002f60e01b81526108009063f49a002f90610809907f0000000000000000000000000000000000000000000000000000000000000000908a9087908790600401610e5d565b5f604051808303815f87803b158015610820575f80fd5b505af1158015610832573d5f803e3d5ffd5b5050505084866001600160a01b0316886001600160a01b03167f67500e8d0ed826d2194f514dd0d8124f35648ab6e3fb5e6ed867134cffe661e960405160405180910390a450505050505050565b5f816001600160a01b0316836001600160a01b0316036108a257506001610409565b506001600160a01b039182165f9081526003602090815260408083209390941682529190915220544265ffffffffffff9091161190565b5f81518084525f5b818110156108fd576020818501810151868301820152016108e1565b505f602082860101526020601f19601f83011685010191505092915050565b602081525f61092e60208301846108d9565b9392505050565b80356001600160a01b038116811461094b575f80fd5b919050565b5f8083601f840112610960575f80fd5b50813567ffffffffffffffff811115610977575f80fd5b60208301915083602082850101111561098e575f80fd5b9250929050565b5f805f80606085870312156109a8575f80fd5b6109b185610935565b935060208501359250604085013567ffffffffffffffff8111156109d3575f80fd5b6109df87828801610950565b95989497509550505050565b5f602082840312156109fb575f80fd5b61092e82610935565b5f805f8060408587031215610a17575f80fd5b843567ffffffffffffffff80821115610a2e575f80fd5b610a3a88838901610950565b90965094506020870135915080821115610a52575f80fd5b506109df87828801610950565b5f8060408385031215610a70575f80fd5b610a7983610935565b946020939093013593505050565b5f805f60408486031215610a99575f80fd5b83359250602084013567ffffffffffffffff811115610ab6575f80fd5b610ac286828701610950565b9497909650939450505050565b5f8060208385031215610ae0575f80fd5b823567ffffffffffffffff811115610af6575f80fd5b610b0285828601610950565b90969095509350505050565b5f8060408385031215610b1f575f80fd5b610b2883610935565b9150610b3660208401610935565b90509250929050565b5f8060408385031215610b50575f80fd5b610b5983610935565b9150602083013565ffffffffffff81168114610b73575f80fd5b809150509250929050565b5f805f805f60808688031215610b92575f80fd5b610b9b86610935565b9450610ba960208701610935565b935060408601359250606086013567ffffffffffffffff811115610bcb575f80fd5b610bd788828901610950565b969995985093965092949392505050565b5f805f60608486031215610bfa575f80fd5b610c0384610935565b9250610c1160208501610935565b9150604084013590509250925092565b600181811c90821680610c3557607f821691505b602082108103610c5357634e487b7160e01b5f52602260045260245ffd5b50919050565b5f60208284031215610c69575f80fd5b5051919050565b81835281816020850137505f828201602090810191909152601f909101601f19169091010190565b6001600160801b0386168152606060208201525f610cba606083018688610c70565b8281036040840152610ccd818587610c70565b98975050505050505050565b818382375f9101908152919050565b6001600160801b0385168152836020820152606060408201525f610d10606083018486610c70565b9695505050505050565b602081525f610d2d602083018486610c70565b949350505050565b6001600160801b0384168152604060208201525f610d57604083018486610c70565b95945050505050565b634e487b7160e01b5f52604160045260245ffd5b5f82601f830112610d83575f80fd5b813567ffffffffffffffff80821115610d9e57610d9e610d60565b604051601f8301601f19908116603f01168101908282118183101715610dc657610dc6610d60565b81604052838152866020858801011115610dde575f80fd5b836020870160208301375f602085830101528094505050505092915050565b5f8060408385031215610e0e575f80fd5b823567ffffffffffffffff80821115610e25575f80fd5b610e3186838701610d74565b93506020850135915080821115610e46575f80fd5b50610e5385828601610d74565b9150509250929050565b6001600160801b03851681526001600160a01b03841660208201526080604082018190525f90610e8f908301856108d9565b8281036060840152610ea181856108d9565b97965050505050505056fea26469706673582212206f63d78d39b5448fa738d0b3f57813813c3d5c4fd0c2cc9cec08c70229687cd064736f6c63430008140033","linkReferences":{}},"methodIdentifiers":{"PRECOMPILE()":"0709d0b1","assetId()":"44de240a","claim(bytes)":"c63ff8dd","confidentialBalanceOf(address)":"344ff101","confidentialTotalSupply()":"54095227","confidentialTransfer(address,bytes32)":"5bebed7e","confidentialTransfer(address,bytes32,bytes)":"2fb74e62","confidentialTransferFrom(address,address,bytes32)":"eb3155b5","confidentialTransferFrom(address,address,bytes32,bytes)":"e064b9bb","decimals()":"313ce567","deposit(uint256,bytes)":"5d303519","isOperator(address,address)":"b6363cf2","name()":"06fdde03","setOperator(address,uint48)":"d4febb96","setPublicKey(bytes)":"a91d58b4","symbol()":"95d89b41","withdraw(bytes,bytes)":"50fbe2d9"},"id":0}