{"abi":[{"type":"constructor","inputs":[{"name":"_assetId","type":"uint128","internalType":"uint128"},{"name":"tokenName","type":"string","internalType":"string"},{"name":"tokenSymbol","type":"string","internalType":"string"},{"name":"tokenDecimals","type":"uint8","internalType":"uint8"}],"stateMutability":"nonpayable"},{"type":"function","name":"PRECOMPILE","inputs":[],"outputs":[{"name":"","type":"address","internalType":"contract IConfidentialAssets"}],"stateMutability":"view"},{"type":"function","name":"assetId","inputs":[],"outputs":[{"name":"","type":"uint128","internalType":"uint128"}],"stateMutability":"view"},{"type":"function","name":"claim","inputs":[{"name":"proof","type":"bytes","internalType":"bytes"}],"outputs":[],"stateMutability":"nonpayable"},{"type":"function","name":"confidentialBalanceOf","inputs":[{"name":"account","type":"address","internalType":"address"}],"outputs":[{"name":"","type":"bytes32","internalType":"bytes32"}],"stateMutability":"view"},{"type":"function","name":"confidentialTotalSupply","inputs":[],"outputs":[{"name":"","type":"bytes32","internalType":"bytes32"}],"stateMutability":"view"},{"type":"function","name":"confidentialTransfer","inputs":[{"name":"to","type":"address","internalType":"address"},{"name":"amount","type":"bytes32","internalType":"bytes32"},{"name":"data","type":"bytes","internalType":"bytes"}],"outputs":[{"name":"","type":"bytes32","internalType":"bytes32"}],"stateMutability":"nonpayable"},{"type":"function","name":"confidentialTransfer","inputs":[{"name":"to","type":"address","internalType":"address"},{"name":"amount","type":"bytes32","internalType":"bytes32"}],"outputs":[{"name":"","type":"bytes32","internalType":"bytes32"}],"stateMutability":"nonpayable"},{"type":"function","name":"confidentialTransferFrom","inputs":[{"name":"from","type":"address","internalType":"address"},{"name":"to","type":"address","internalType":"address"},{"name":"amount","type":"bytes32","internalType":"bytes32"},{"name":"data","type":"bytes","internalType":"bytes"}],"outputs":[{"name":"","type":"bytes32","internalType":"bytes32"}],"stateMutability":"nonpayable"},{"type":"function","name":"confidentialTransferFrom","inputs":[{"name":"from","type":"address","internalType":"address"},{"name":"to","type":"address","internalType":"address"},{"name":"amount","type":"bytes32","internalType":"bytes32"}],"outputs":[{"name":"","type":"bytes32","internalType":"bytes32"}],"stateMutability":"nonpayable"},{"type":"function","name":"decimals","inputs":[],"outputs":[{"name":"","type":"uint8","internalType":"uint8"}],"stateMutability":"view"},{"type":"function","name":"deposit","inputs":[{"name":"amount","type":"uint256","internalType":"uint256"},{"name":"proof","type":"bytes","internalType":"bytes"}],"outputs":[],"stateMutability":"nonpayable"},{"type":"function","name":"isOperator","inputs":[{"name":"holder","type":"address","internalType":"address"},{"name":"spender","type":"address","internalType":"address"}],"outputs":[{"name":"","type":"bool","internalType":"bool"}],"stateMutability":"view"},{"type":"function","name":"name","inputs":[],"outputs":[{"name":"","type":"string","internalType":"string"}],"stateMutability":"view"},{"type":"function","name":"setOperator","inputs":[{"name":"operator","type":"address","internalType":"address"},{"name":"until","type":"uint48","internalType":"uint48"}],"outputs":[],"stateMutability":"nonpayable"},{"type":"function","name":"setPublicKey","inputs":[{"name":"pubkey","type":"bytes","internalType":"bytes"}],"outputs":[],"stateMutability":"nonpayable"},{"type":"function","name":"symbol","inputs":[],"outputs":[{"name":"","type":"string","internalType":"string"}],"stateMutability":"view"},{"type":"function","name":"withdraw","inputs":[{"name":"encryptedAmount","type":"bytes","internalType":"bytes"},{"name":"proof","type":"bytes","internalType":"bytes"}],"outputs":[],"stateMutability":"nonpayable"},{"type":"event","name":"AmountDisclosed","inputs":[{"name":"handle","type":"bytes32","indexed":true,"internalType":"bytes32"},{"name":"amount","type":"uint256","indexed":false,"internalType":"uint256"}],"anonymous":false},{"type":"event","name":"ConfidentialTransfer","inputs":[{"name":"from","type":"address","indexed":true,"internalType":"address"},{"name":"to","type":"address","indexed":true,"internalType":"address"},{"name":"amount","type":"bytes32","indexed":true,"internalType":"bytes32"}],"anonymous":false},{"type":"event","name":"OperatorSet","inputs":[{"name":"holder","type":"address","indexed":true,"internalType":"address"},{"name":"operator","type":"address","indexed":true,"internalType":"address"},{"name":"until","type":"uint48","indexed":false,"internalType":"uint48"}],"anonymous":false},{"type":"error","name":"InvalidData","inputs":[]},{"type":"error","name":"ReceiverRejected","inputs":[]},{"type":"error","name":"Unauthorized","inputs":[]}],"bytecode":{"object":"0x60a060405234801562000010575f80fd5b5060405162002275380380620022758339818101604052810190620000369190620004a5565b836fffffffffffffffffffffffffffffffff166080816fffffffffffffffffffffffffffffffff16815250505f835111156200008357825f90816200007c919062000789565b5062000116565b61080073ffffffffffffffffffffffffffffffffffffffff1663c624440a856040518263ffffffff1660e01b8152600401620000c091906200087e565b5f60405180830381865afa158015620000db573d5f803e3d5ffd5b505050506040513d5f823e3d601f19601f8201168201806040525081019062000105919062000899565b5f908162000114919062000789565b505b5f825111156200013857816001908162000131919062000789565b50620001cc565b61080073ffffffffffffffffffffffffffffffffffffffff1663117f1264856040518263ffffffff1660e01b81526004016200017591906200087e565b5f60405180830381865afa15801562000190573d5f803e3d5ffd5b505050506040513d5f823e3d601f19601f82011682018060405250810190620001ba919062000899565b60019081620001ca919062000789565b505b5f8160ff161115620001f8578060025f6101000a81548160ff021916908360ff16021790555062000291565b61080073ffffffffffffffffffffffffffffffffffffffff166309d2f9b4856040518263ffffffff1660e01b81526004016200023591906200087e565b602060405180830381865afa15801562000251573d5f803e3d5ffd5b505050506040513d601f19601f82011682018060405250810190620002779190620008e8565b60025f6101000a81548160ff021916908360ff1602179055505b5050505062000918565b5f604051905090565b5f80fd5b5f80fd5b5f6fffffffffffffffffffffffffffffffff82169050919050565b620002d281620002ac565b8114620002dd575f80fd5b50565b5f81519050620002f081620002c7565b92915050565b5f80fd5b5f80fd5b5f601f19601f8301169050919050565b7f4e487b71000000000000000000000000000000000000000000000000000000005f52604160045260245ffd5b6200034682620002fe565b810181811067ffffffffffffffff821117156200036857620003676200030e565b5b80604052505050565b5f6200037c6200029b565b90506200038a82826200033b565b919050565b5f67ffffffffffffffff821115620003ac57620003ab6200030e565b5b620003b782620002fe565b9050602081019050919050565b5f5b83811015620003e3578082015181840152602081019050620003c6565b5f8484015250505050565b5f62000404620003fe846200038f565b62000371565b905082815260208101848484011115620004235762000422620002fa565b5b62000430848285620003c4565b509392505050565b5f82601f8301126200044f576200044e620002f6565b5b815162000461848260208601620003ee565b91505092915050565b5f60ff82169050919050565b62000481816200046a565b81146200048c575f80fd5b50565b5f815190506200049f8162000476565b92915050565b5f805f8060808587031215620004c057620004bf620002a4565b5b5f620004cf87828801620002e0565b945050602085015167ffffffffffffffff811115620004f357620004f2620002a8565b5b620005018782880162000438565b935050604085015167ffffffffffffffff811115620005255762000524620002a8565b5b620005338782880162000438565b925050606062000546878288016200048f565b91505092959194509250565b5f81519050919050565b7f4e487b71000000000000000000000000000000000000000000000000000000005f52602260045260245ffd5b5f6002820490506001821680620005a157607f821691505b602082108103620005b757620005b66200055c565b5b50919050565b5f819050815f5260205f209050919050565b5f6020601f8301049050919050565b5f82821b905092915050565b5f600883026200061b7fffffffffffffffffffffffffffffffffffffffffffffffffffffffffffffffff82620005de565b620006278683620005de565b95508019841693508086168417925050509392505050565b5f819050919050565b5f819050919050565b5f620006716200066b62000665846200063f565b62000648565b6200063f565b9050919050565b5f819050919050565b6200068c8362000651565b620006a46200069b8262000678565b848454620005ea565b825550505050565b5f90565b620006ba620006ac565b620006c781848462000681565b505050565b5b81811015620006ee57620006e25f82620006b0565b600181019050620006cd565b5050565b601f8211156200073d576200070781620005bd565b6200071284620005cf565b8101602085101562000722578190505b6200073a6200073185620005cf565b830182620006cc565b50505b505050565b5f82821c905092915050565b5f6200075f5f198460080262000742565b1980831691505092915050565b5f6200077983836200074e565b9150826002028217905092915050565b620007948262000552565b67ffffffffffffffff811115620007b057620007af6200030e565b5b620007bc825462000589565b620007c9828285620006f2565b5f60209050601f831160018114620007ff575f8415620007ea578287015190505b620007f685826200076c565b86555062000865565b601f1984166200080f86620005bd565b5f5b82811015620008385784890151825560018201915060208501945060208101905062000811565b8683101562000858578489015162000854601f8916826200074e565b8355505b6001600288020188555050505b505050505050565b6200087881620002ac565b82525050565b5f602082019050620008935f8301846200086d565b92915050565b5f60208284031215620008b157620008b0620002a4565b5b5f82015167ffffffffffffffff811115620008d157620008d0620002a8565b5b620008df8482850162000438565b91505092915050565b5f602082840312156200090057620008ff620002a4565b5b5f6200090f848285016200048f565b91505092915050565b60805161191a6200095b5f395f8181610451015281816104d60152818161051801528181610621015281816106f3015281816109830152610bf3015261191a5ff3fe608060405234801561000f575f80fd5b5060043610610109575f3560e01c80635bebed7e116100a0578063b6363cf21161006f578063b6363cf2146102a5578063c63ff8dd146102d5578063d4febb96146102f1578063e064b9bb1461030d578063eb3155b51461033d57610109565b80635bebed7e1461021f5780635d3035191461024f57806395d89b411461026b578063a91d58b41461028957610109565b8063344ff101116100dc578063344ff1011461019757806344de240a146101c757806350fbe2d9146101e5578063540952271461020157610109565b806306fdde031461010d5780630709d0b11461012b5780632fb74e6214610149578063313ce56714610179575b5f80fd5b61011561036d565b6040516101229190610e2e565b60405180910390f35b6101336103fc565b6040516101409190610ec8565b60405180910390f35b610163600480360381019061015e9190610fc1565b610402565b6040516101709190611041565b60405180910390f35b61018161041b565b60405161018e9190611075565b60405180910390f35b6101b160048036038101906101ac919061108e565b610430565b6040516101be9190611041565b60405180910390f35b6101cf6104d4565b6040516101dc91906110e3565b60405180910390f35b6101ff60048036038101906101fa91906110fc565b6104f8565b005b610209610600565b6040516102169190611041565b60405180910390f35b6102396004803603810190610234919061117a565b6106a0565b6040516102469190611041565b60405180910390f35b610269600480360381019061026491906111eb565b6106d3565b005b6102736107c3565b6040516102809190610e2e565b60405180910390f35b6102a3600480360381019061029e9190611248565b610853565b005b6102bf60048036038101906102ba9190611293565b6108c1565b6040516102cc91906112eb565b60405180910390f35b6102ef60048036038101906102ea9190611248565b610963565b005b61030b6004803603810190610306919061133f565b6109f3565b005b6103276004803603810190610322919061137d565b610af6565b6040516103349190611041565b60405180910390f35b61035760048036038101906103529190611401565b610b50565b6040516103649190611041565b60405180910390f35b60605f805461037b9061147e565b80601f01602080910402602001604051908101604052809291908181526020018280546103a79061147e565b80156103f25780601f106103c9576101008083540402835291602001916103f2565b820191905f5260205f20905b8154815290600101906020018083116103d557829003601f168201915b5050505050905090565b61080081565b5f6104103386868686610b83565b839050949350505050565b5f60025f9054906101000a900460ff16905090565b5f61080073ffffffffffffffffffffffffffffffffffffffff1663cd40095b7f0000000000000000000000000000000000000000000000000000000000000000846040518363ffffffff1660e01b815260040161048e9291906114bd565b602060405180830381865afa1580156104a9573d5f803e3d5ffd5b505050506040513d601f19601f820116820180604052508101906104cd91906114f8565b9050919050565b7f000000000000000000000000000000000000000000000000000000000000000081565b61080073ffffffffffffffffffffffffffffffffffffffff1663f1f9153b7f0000000000000000000000000000000000000000000000000000000000000000868686866040518663ffffffff1660e01b815260040161055b95949392919061156d565b5f604051808303815f87803b158015610572575f80fd5b505af1158015610584573d5f803e3d5ffd5b5050505083836040516105989291906115e2565b60405180910390205f73ffffffffffffffffffffffffffffffffffffffff163373ffffffffffffffffffffffffffffffffffffffff167f67500e8d0ed826d2194f514dd0d8124f35648ab6e3fb5e6ed867134cffe661e960405160405180910390a450505050565b5f61080073ffffffffffffffffffffffffffffffffffffffff1663efa186417f00000000000000000000000000000000000000000000000000000000000000006040518263ffffffff1660e01b815260040161065c91906110e3565b602060405180830381865afa158015610677573d5f803e3d5ffd5b505050506040513d601f19601f8201168201806040525081019061069b91906114f8565b905090565b5f6040517f5cb045db00000000000000000000000000000000000000000000000000000000815260040160405180910390fd5b61080073ffffffffffffffffffffffffffffffffffffffff166394679bd17f00000000000000000000000000000000000000000000000000000000000000008585856040518563ffffffff1660e01b81526004016107349493929190611609565b5f604051808303815f87803b15801561074b575f80fd5b505af115801561075d573d5f803e3d5ffd5b50505050825f1b3373ffffffffffffffffffffffffffffffffffffffff165f73ffffffffffffffffffffffffffffffffffffffff167f67500e8d0ed826d2194f514dd0d8124f35648ab6e3fb5e6ed867134cffe661e960405160405180910390a4505050565b6060600180546107d29061147e565b80601f01602080910402602001604051908101604052809291908181526020018280546107fe9061147e565b80156108495780601f1061082057610100808354040283529160200191610849565b820191905f5260205f20905b81548152906001019060200180831161082c57829003601f168201915b5050505050905090565b61080073ffffffffffffffffffffffffffffffffffffffff1663a91d58b483836040518363ffffffff1660e01b8152600401610890929190611647565b5f604051808303815f87803b1580156108a7575f80fd5b505af11580156108b9573d5f803e3d5ffd5b505050505050565b5f8060035f8573ffffffffffffffffffffffffffffffffffffffff1673ffffffffffffffffffffffffffffffffffffffff1681526020019081526020015f205f8473ffffffffffffffffffffffffffffffffffffffff1673ffffffffffffffffffffffffffffffffffffffff1681526020019081526020015f205f9054906101000a900465ffffffffffff169050428165ffffffffffff161191505092915050565b61080073ffffffffffffffffffffffffffffffffffffffff166312cb9d887f000000000000000000000000000000000000000000000000000000000000000084846040518463ffffffff1660e01b81526004016109c293929190611669565b5f604051808303815f87803b1580156109d9575f80fd5b505af11580156109eb573d5f803e3d5ffd5b505050505050565b8060035f3373ffffffffffffffffffffffffffffffffffffffff1673ffffffffffffffffffffffffffffffffffffffff1681526020019081526020015f205f8473ffffffffffffffffffffffffffffffffffffffff1673ffffffffffffffffffffffffffffffffffffffff1681526020019081526020015f205f6101000a81548165ffffffffffff021916908365ffffffffffff1602179055508173ffffffffffffffffffffffffffffffffffffffff163373ffffffffffffffffffffffffffffffffffffffff167f921a218a75d18e8ec5704851e6b234a85725b21a2521ce889622c35dedc1fa1283604051610aea91906116a8565b60405180910390a35050565b5f610b018633610cc5565b610b37576040517f82b4290000000000000000000000000000000000000000000000000000000000815260040160405180910390fd5b610b448686868686610b83565b83905095945050505050565b5f6040517f5cb045db00000000000000000000000000000000000000000000000000000000815260040160405180910390fd5b5f808383810190610b9491906117db565b915091506040825114610bd3576040517f5cb045db00000000000000000000000000000000000000000000000000000000815260040160405180910390fd5b61080073ffffffffffffffffffffffffffffffffffffffff1663f49a002f7f00000000000000000000000000000000000000000000000000000000000000008885856040518563ffffffff1660e01b8152600401610c349493929190611893565b5f604051808303815f87803b158015610c4b575f80fd5b505af1158015610c5d573d5f803e3d5ffd5b50505050848673ffffffffffffffffffffffffffffffffffffffff168873ffffffffffffffffffffffffffffffffffffffff167f67500e8d0ed826d2194f514dd0d8124f35648ab6e3fb5e6ed867134cffe661e960405160405180910390a450505050505050565b5f8173ffffffffffffffffffffffffffffffffffffffff168373ffffffffffffffffffffffffffffffffffffffff1603610d025760019050610d9e565b5f60035f8573ffffffffffffffffffffffffffffffffffffffff1673ffffffffffffffffffffffffffffffffffffffff1681526020019081526020015f205f8473ffffffffffffffffffffffffffffffffffffffff1673ffffffffffffffffffffffffffffffffffffffff1681526020019081526020015f205f9054906101000a900465ffffffffffff169050428165ffffffffffff16119150505b92915050565b5f81519050919050565b5f82825260208201905092915050565b5f5b83811015610ddb578082015181840152602081019050610dc0565b5f8484015250505050565b5f601f19601f8301169050919050565b5f610e0082610da4565b610e0a8185610dae565b9350610e1a818560208601610dbe565b610e2381610de6565b840191505092915050565b5f6020820190508181035f830152610e468184610df6565b905092915050565b5f73ffffffffffffffffffffffffffffffffffffffff82169050919050565b5f819050919050565b5f610e90610e8b610e8684610e4e565b610e6d565b610e4e565b9050919050565b5f610ea182610e76565b9050919050565b5f610eb282610e97565b9050919050565b610ec281610ea8565b82525050565b5f602082019050610edb5f830184610eb9565b92915050565b5f604051905090565b5f80fd5b5f80fd5b5f610efc82610e4e565b9050919050565b610f0c81610ef2565b8114610f16575f80fd5b50565b5f81359050610f2781610f03565b92915050565b5f819050919050565b610f3f81610f2d565b8114610f49575f80fd5b50565b5f81359050610f5a81610f36565b92915050565b5f80fd5b5f80fd5b5f80fd5b5f8083601f840112610f8157610f80610f60565b5b8235905067ffffffffffffffff811115610f9e57610f9d610f64565b5b602083019150836001820283011115610fba57610fb9610f68565b5b9250929050565b5f805f8060608587031215610fd957610fd8610eea565b5b5f610fe687828801610f19565b9450506020610ff787828801610f4c565b935050604085013567ffffffffffffffff81111561101857611017610eee565b5b61102487828801610f6c565b925092505092959194509250565b61103b81610f2d565b82525050565b5f6020820190506110545f830184611032565b92915050565b5f60ff82169050919050565b61106f8161105a565b82525050565b5f6020820190506110885f830184611066565b92915050565b5f602082840312156110a3576110a2610eea565b5b5f6110b084828501610f19565b91505092915050565b5f6fffffffffffffffffffffffffffffffff82169050919050565b6110dd816110b9565b82525050565b5f6020820190506110f65f8301846110d4565b92915050565b5f805f806040858703121561111457611113610eea565b5b5f85013567ffffffffffffffff81111561113157611130610eee565b5b61113d87828801610f6c565b9450945050602085013567ffffffffffffffff8111156111605761115f610eee565b5b61116c87828801610f6c565b925092505092959194509250565b5f80604083850312156111905761118f610eea565b5b5f61119d85828601610f19565b92505060206111ae85828601610f4c565b9150509250929050565b5f819050919050565b6111ca816111b8565b81146111d4575f80fd5b50565b5f813590506111e5816111c1565b92915050565b5f805f6040848603121561120257611201610eea565b5b5f61120f868287016111d7565b935050602084013567ffffffffffffffff8111156112305761122f610eee565b5b61123c86828701610f6c565b92509250509250925092565b5f806020838503121561125e5761125d610eea565b5b5f83013567ffffffffffffffff81111561127b5761127a610eee565b5b61128785828601610f6c565b92509250509250929050565b5f80604083850312156112a9576112a8610eea565b5b5f6112b685828601610f19565b92505060206112c785828601610f19565b9150509250929050565b5f8115159050919050565b6112e5816112d1565b82525050565b5f6020820190506112fe5f8301846112dc565b92915050565b5f65ffffffffffff82169050919050565b61131e81611304565b8114611328575f80fd5b50565b5f8135905061133981611315565b92915050565b5f806040838503121561135557611354610eea565b5b5f61136285828601610f19565b92505060206113738582860161132b565b9150509250929050565b5f805f805f6080868803121561139657611395610eea565b5b5f6113a388828901610f19565b95505060206113b488828901610f19565b94505060406113c588828901610f4c565b935050606086013567ffffffffffffffff8111156113e6576113e5610eee565b5b6113f288828901610f6c565b92509250509295509295909350565b5f805f6060848603121561141857611417610eea565b5b5f61142586828701610f19565b935050602061143686828701610f19565b925050604061144786828701610f4c565b9150509250925092565b7f4e487b71000000000000000000000000000000000000000000000000000000005f52602260045260245ffd5b5f600282049050600182168061149557607f821691505b6020821081036114a8576114a7611451565b5b50919050565b6114b781610ef2565b82525050565b5f6040820190506114d05f8301856110d4565b6114dd60208301846114ae565b9392505050565b5f815190506114f281610f36565b92915050565b5f6020828403121561150d5761150c610eea565b5b5f61151a848285016114e4565b91505092915050565b5f82825260208201905092915050565b828183375f83830152505050565b5f61154c8385611523565b9350611559838584611533565b61156283610de6565b840190509392505050565b5f6060820190506115805f8301886110d4565b8181036020830152611593818688611541565b905081810360408301526115a8818486611541565b90509695505050505050565b5f81905092915050565b5f6115c983856115b4565b93506115d6838584611533565b82840190509392505050565b5f6115ee8284866115be565b91508190509392505050565b611603816111b8565b82525050565b5f60608201905061161c5f8301876110d4565b61162960208301866115fa565b818103604083015261163c818486611541565b905095945050505050565b5f6020820190508181035f830152611660818486611541565b90509392505050565b5f60408201905061167c5f8301866110d4565b818103602083015261168f818486611541565b9050949350505050565b6116a281611304565b82525050565b5f6020820190506116bb5f830184611699565b92915050565b5f80fd5b7f4e487b71000000000000000000000000000000000000000000000000000000005f52604160045260245ffd5b6116fb82610de6565b810181811067ffffffffffffffff8211171561171a576117196116c5565b5b80604052505050565b5f61172c610ee1565b905061173882826116f2565b919050565b5f67ffffffffffffffff821115611757576117566116c5565b5b61176082610de6565b9050602081019050919050565b5f61177f61177a8461173d565b611723565b90508281526020810184848401111561179b5761179a6116c1565b5b6117a6848285611533565b509392505050565b5f82601f8301126117c2576117c1610f60565b5b81356117d284826020860161176d565b91505092915050565b5f80604083850312156117f1576117f0610eea565b5b5f83013567ffffffffffffffff81111561180e5761180d610eee565b5b61181a858286016117ae565b925050602083013567ffffffffffffffff81111561183b5761183a610eee565b5b611847858286016117ae565b9150509250929050565b5f81519050919050565b5f61186582611851565b61186f8185611523565b935061187f818560208601610dbe565b61188881610de6565b840191505092915050565b5f6080820190506118a65f8301876110d4565b6118b360208301866114ae565b81810360408301526118c5818561185b565b905081810360608301526118d9818461185b565b90509594505050505056fea26469706673582212207bbe52ffc9d2f62afbd652128d267b3e8c4520375bc1f633393c9bf9a52a7f3e64736f6c63430008140033","linkReferences":{}},"methodIdentifiers":{"PRECOMPILE()":"0709d0b1","assetId()":"44de240a","claim(bytes)":"c63ff8dd","confidentialBalanceOf(address)":"344ff101","confidentialTotalSupply()":"54095227","confidentialTransfer(address,bytes32)":"5bebed7e","confidentialTransfer(address,bytes32,bytes)":"2fb74e62","confidentialTransferFrom(address,address,bytes32)":"eb3155b5","confidentialTransferFrom(address,address,bytes32,bytes)":"e064b9bb","decimals()":"313ce567","deposit(uint256,bytes)":"5d303519","isOperator(address,address)":"b6363cf2","name()":"06fdde03","setOperator(address,uint48)":"d4febb96","setPublicKey(bytes)":"a91d58b4","symbol()":"95d89b41","withdraw(bytes,bytes)":"50fbe2d9"},"id":0}